:100000000C9434000C94A3010C9446000C9446000C
:100010000C9446000C94B8010C9446000C944600D5
:100020000C9446000C9446000C9446000C94460038
:100030000C9446000C9446000C9446000C94460028
:100040000C9446000C9446000C9446000C94460018
:100050000C9446000C94E3020C9446000C94460069
:100060000C9446000C94460011241FBECFEFD8E03C
:10007000DEBFCDBF21E0A0E0B1E001C01D92A930FC
:10008000B207E1F70E941B010C949E070C9400003C
:10009000ECE7F0E0108280818064808380818F773C
:1000A0008083808180628083EAE7F0E01082808133
:1000B0008068808380818860808380818160808384
:1000C000808182608083808184608083EEE7F0E0BD
:1000D0008081816080838081826080838081846070
:1000E00080838081886080830895ECE7F0E09081D0
:1000F000907F892B8083EAE7F0E0808180648083B1
:1001000080917A0086FDFCCF80917900089583E08C
:100110008093690081E08DBB84B1816184B985B130
:1001200085B98AB180688AB985B18F7785B98AB176
:100130008B7F8AB98BB184608BB908958AB1877F30
:100140008AB98AB18F7D8AB98BB188628BB9EDE6A5
:10015000F0E0808188628083E8E6F0E0808184605E
:10016000808308950F931F93CF93DF9387E00E94BE
:100170007500809307010E945804CCE7D0E0888185
:10018000807F88838881876088830AE710E0F80190
:100190008081806480838FE39CE90197F1F700C040
:1001A000000086E00E947500809306010E944905C8
:1001B0008881807F8883888186608883F801808138
:1001C000806480838FE39CE90197F1F700C0000011
:1001D00085E00E947500809305010E94900488814B
:1001E000807F8883888185608883F801808180642E
:1001F00080838FE39CE90197F1F700C0000084E061
:100200000E947500809304010E946A038881807FA8
:100210008883888184608883F801808180648083FA
:100220008FE39CE90197F1F700C00000DF91CF91C7
:100230001F910F910895F894109280001092810000
:100240001092B0001092B10014BC15BC0E9448007E
:100250004FE35CE968E070E080E00E94FE0360E04C
:1002600074E080E00E9427054FE35CE968E070E0FD
:1002700080E00E942B0460E074E080E00E9457035D
:100280000E9487000E949E0078948091080181114D
:100290000CC085B1806185B985B18E7F85B98BB180
:1002A0008F778BB90E94B200F0CF813031F48BB1DF
:1002B00080688BB90E94B200E8CF823051F485B1DA
:1002C000816085B985B18F7E85B98BB18F778BB908
:1002D000DCCF833039F48BB180688BB985B18E7FE8
:1002E00085B9D3CF85B1816085B9CFCF1F93CF9327
:1002F000DF93162FD42FC22F0E9458048FE39CE95E
:100300000197F1F700C00000812F0E9449058FE39B
:100310009CE90197F1F700C000008D2F0E94900426
:100320008FE39CE90197F1F700C000008C2F0E9439
:100330006A038FE39CE90197F1F700C00000DF91A9
:10034000CF911F9108951F920F920FB60F92112413
:100350008F93809108018F5F80930801853011F49D
:10036000109208018F910F900FBE0F901F9018955B
:100370001F920F920FB60F9211241F932F933F934A
:100380004F935F936F937F938F939F93AF93BF939D
:10039000CF93DF93EF93FF9380910801811135C0D4
:1003A0004B9918C06091070180E090E00E9490078F
:1003B0006091060181E090E00E9490076091050144
:1003C00082E090E00E9490076091040183E090E059
:1003D0000E9490074D99E3C06091070184E090E08E
:1003E0000E9490076091060185E090E00E949007CE
:1003F0006091050186E090E00E9490076091040101
:1004000087E090E00E949007CAC08130A9F54B991F
:1004100018C06091070188E090E00E949007609109
:10042000060189E090E00E949007609105018AE052
:1004300090E00E949007609104018BE090E00E94A0
:1004400090074D99ACC0609107018CE090E00E944C
:100450009007609106018DE090E00E949007609106
:1004600005018EE090E00E949007609104018FE00A
:1004700090E00E94900793C0823009F047C04B99EA
:1004800021C080E090E00E948807C82F809303017C
:1004900081E090E00E948807D82F8093020182E0DB
:1004A00090E00E948807182F8093010183E090E07C
:1004B0000E94880780930001282F412F6D2F8C2FD9
:1004C0000E9476014D996BC084E090E00E948807FD
:1004D000C82F8093030185E090E00E948807D82F01
:1004E0008093020186E090E00E948807182F809395
:1004F000010187E090E00E94880780930001282F87
:10050000412F6D2F8C2F0E94760149C0833009F056
:1005100046C04B9921C088E090E00E948807C82F10
:100520008093030189E090E00E948807D82F809390
:1005300002018AE090E00E948807182F8093010151
:100540008BE090E00E94880780930001282F412FC4
:100550006D2F8C2F0E9476014D9921C08CE090E088
:100560000E948807C82F809303018DE090E00E94CD
:100570008807D82F809302018EE090E00E948807C0
:10058000182F809301018FE090E00E9488078093EC
:100590000001282F412F6D2F8C2F0E947601FF9193
:1005A000EF91DF91CF91BF91AF919F918F917F910B
:1005B0006F915F914F913F912F911F910F900FBEBF
:1005C0000F901F9018951F920F920FB60F92112443
:1005D0008F93EF93FF93EAE7F0E08081806180835F
:1005E000FF91EF918F910F900FBE0F901F90189574
:1005F0004F925F926F927F92AF92BF92CF92DF92B3
:10060000EF92FF920F931F93CF93DF93CDB7DEB797
:1006100028970FB6F894DEBF0FBECDBF29013A016F
:10062000ED82FE820F8318870E947F0569837A839B
:100630008B839C83A6019501698D7A8D8B8D9C8D12
:100640000E947F059B01AC0169817A818B819C812D
:100650000E941B0769837A838B839C83A301920189
:10066000C801B7010E947F059B01AC0169817A81B5
:100670008B819C810E94EC059B01AC01C601B501F8
:100680000E94800528960FB6F894DEBF0FBECDBF3E
:10069000DF91CF911F910F91FF90EF90DF90CF905E
:1006A000BF90AF907F906F905F904F9008959AB1F8
:1006B00090649AB9882321F084B5806C84BD03C00E
:1006C00084B5806884BD84B5836084BD85B585604C
:1006D00085BD0895AF92BF92CF92DF92EF92FF92C5
:1006E0000F931F93682F70E080E090E00E948D06CA
:1006F00022E42F9320E12F931F921F920F2EA12C03
:10070000B12CF0ECCF2EF0E4DF2EF02DE12CF12C0B
:100710000FE713E420E030E0A9010E94F8020F90F7
:100720000F900F900F900E945E0667BD1F910F9172
:10073000FF90EF90DF90CF90BF90AF9008954F92D1
:100740005F926F927F92AF92BF92CF92DF92EF92C1
:10075000FF920F931F93CF93DF93CDB7DEB7289708
:100760000FB6F894DEBF0FBECDBF29013A01ED826E
:10077000FE820F8318870E947F0569837A838B83AB
:100780009C83A6019501698D7A8D8B8D9C8D0E942D
:100790007F059B01AC0169817A818B819C810E94DC
:1007A0001B0769837A838B839C83A3019201C80111
:1007B000B7010E947F059B01AC0169817A818B8121
:1007C0009C810E94EC059B01AC01C601B5010E9411
:1007D000800528960FB6F894DEBF0FBECDBFDF911F
:1007E000CF911F910F91FF90EF90DF90CF90BF902E
:1007F000AF907F906F905F904F90089594B192600A
:1008000094B9E0E8F0E0908192609083E1E8F0E054
:10081000908198619083509387004093860088234D
:1008200031F0E0E8F0E08081806C808305C0E0E892
:10083000F0E08081806880836830710531F4E1E800
:10084000F0E08081826080830895E1E8F0E08081BB
:1008500084608083089594B1946094B9E0E8F0E0F6
:10086000908192609083E1E8F0E0908198619083BC
:100870005093870040938600882331F0E0E8F0E051
:1008800080818063808305C0E0E8F0E08081806241
:1008900080836830710531F4E1E8F0E080818260A6
:1008A00080830895E1E8F0E080818460808308958A
:1008B000AF92BF92CF92DF92EF92FF920F931F936E
:1008C000682F70E080E090E00E948D0625E42F9371
:1008D00026E92F931F921F920F2EA12CB12CF1E627
:1008E000CF2EF4E4DF2EF02DE12CF12C0FE713E4F2
:1008F00020E030E0A9010E949F030F900F900F901D
:100900000F900E945E0670938900609388001F918B
:100910000F91FF90EF90DF90CF90BF90AF90089530
:10092000AF92BF92CF92DF92EF92FF920F931F93FD
:10093000682F70E080E090E00E948D0625E42F9300
:1009400026E92F931F921F920F2EA12CB12CF1E6B6
:10095000CF2EF4E4DF2EF02DE12CF12C0FE713E481
:1009600020E030E0A9010E949F030F900F900F90AC
:100970000F900E945E0670938B0060938A001F9117
:100980000F91FF90EF90DF90CF90BF90AF900895C0
:100990004F925F926F927F92AF92BF92CF92DF920F
:1009A000EF92FF920F931F93CF93DF93CDB7DEB7F4
:1009B00028970FB6F894DEBF0FBECDBF29013A01CC
:1009C000ED82FE820F8318870E947F0569837A83F8
:1009D0008B839C83A6019501698D7A8D8B8D9C8D6F
:1009E0000E947F059B01AC0169817A818B819C818A
:1009F0000E941B0769837A838B839C83A3019201E6
:100A0000C801B7010E947F059B01AC0169817A8111
:100A10008B819C810E94EC059B01AC01C601B50154
:100A20000E94800528960FB6F894DEBF0FBECDBF9A
:100A3000DF91CF911F910F91FF90EF90DF90CF90BA
:100A4000BF90AF907F906F905F904F90089594B15A
:100A5000986094B9E0EBF0E09081936090838823F4
:100A600021F08081806C808305C0E0EBF0E0808124
:100A7000806880836115744031F4E1EBF0E080819F
:100A8000876080830895E1EBF0E08081816080835E
:100A90000895AF92BF92CF92DF92EF92FF920F93A1
:100AA0001F93682F70E080E090E00E948D0622E4A2
:100AB0002F9320E12F931F921F920F2EA12CB12C68
:100AC000F0ECCF2EF0E4DF2EF02DE12CF12C0FE72F
:100AD00013E420E030E0A9010E94C8040F900F90B9
:100AE0000F900F900E945E066093B3001F910F91CC
:100AF000FF90EF90DF90CF90BF90AF900895505847
:100B0000BB27AA270E9497050C94E1060E94D306F2
:100B100038F00E94DA0620F039F49F3F19F426F4E9
:100B20000C94D0060EF4E095E7FB0C94CA06E92F6E
:100B30000E94F20658F3BA176207730784079507F5
:100B400020F079F4A6F50C9414070EF4E0950B2E22
:100B5000BA2FA02D0B01B90190010C01CA01A0010F
:100B60001124FF27591B99F0593F50F4503E68F16A
:100B70001A16F040A22F232F342F4427585FF3CFAB
:100B8000469537952795A795F0405395C9F77EF47C
:100B90001F16BA0B620B730B840BBAF09150A1F0C5
:100BA000FF0FBB1F661F771F881FC2F70EC0BA0F4B
:100BB000621F731F841F48F4879577956795B795D3
:100BC000F7959E3F08F0B0CF9395880F08F09927CE
:100BD000EE0F9795879508950E9400060C94E10604
:100BE0000E94DA0658F00E94D30640F029F45F3FD5
:100BF00029F00C94CA0651110C9415070C94D006D8
:100C00000E94F20668F39923B1F3552391F3951BE3
:100C1000550BBB27AA2762177307840738F09F5F1D
:100C20005F4F220F331F441FAA1FA9F335D00E2E8A
:100C30003AF0E0E832D091505040E695001CCAF7F7
:100C40002BD0FE2F29D0660F771F881FBB1F2617BA
:100C500037074807AB07B0E809F0BB0B802DBF0191
:100C6000FF2793585F4F3AF09E3F510578F00C9460
:100C7000CA060C9415075F3FE4F3983ED4F38695BB
:100C800077956795B795F7959F5FC9F7880F911D81
:100C90009695879597F90895E1E0660F771F881F6D
:100CA000BB1F621773078407BA0720F0621B730B20
:100CB000840BBA0BEE1F88F7E09508950E94FA06A0
:100CC00088F09F5798F0B92F9927B751B0F0E1F00D
:100CD000660F771F881F991F1AF0BA95C9F714C0BD
:100CE000B13091F00E941407B1E008950C941407FC
:100CF000672F782F8827B85F39F0B93FCCF38695F6
:100D000077956795B395D9F73EF490958095709552
:100D100061957F4F8F4F9F4F0895E89409C097FBCF
:100D20003EF490958095709561957F4F8F4F9F4FC2
:100D30009923A9F0F92F96E9BB279395F695879506
:100D400077956795B795F111F8CFFAF4BB0F11F4C9
:100D500060FF1BC06F5F7F4F8F4F9F4F16C0882370
:100D600011F096E911C0772321F09EE8872F762FA6
:100D700005C0662371F096E8862F70E060E02AF0E7
:100D80009A95660F771F881FDAF7880F96958795D3
:100D900097F9089597F99F6780E870E060E00895FB
:100DA0009FEF80EC089500240A9416161706180683
:100DB0000906089500240A9412161306140605065F
:100DC0000895092E0394000C11F4882352F0BB0FF0
:100DD00040F4BF2B11F460FF04C06F5F7F4F8F4F53
:100DE0009F4F089557FD9058440F551F59F05F3F8E
:100DF00071F04795880F97FB991F61F09F3F79F03D
:100E000087950895121613061406551FF2CF4695BE
:100E1000F1DF08C0161617061806991FF1CF869540
:100E20007105610508940895E894BB276627772724
:100E3000CB0197F908950E942E070C94E1060E94B9
:100E4000D30638F00E94DA0620F0952311F00C94B6
:100E5000CA060C94D00611240C9415070E94F206C1
:100E600070F3959FC1F3950F50E0551F629FF001FD
:100E7000729FBB27F00DB11D639FAA27F00DB11D16
:100E8000AA1F649F6627B00DA11D661F829F22279F
:100E9000B00DA11D621F739FB00DA11D621F839F26
:100EA000A00D611D221F749F3327A00D611D231FFC
:100EB000849F600D211D822F762F6A2F11249F574A
:100EC00050409AF0F1F088234AF0EE0FFF1FBB1F4D
:100ED000661F771F881F91505040A9F79E3F51050C
:100EE00080F00C94CA060C9415075F3FE4F3983E1B
:100EF000D4F3869577956795B795F795E7959F5FB6
:100F0000C1F7FE2B880F911D9695879597F9089547
:100F1000F999FECF92BD81BDF89A992780B50895C1
:100F2000262FF999FECF1FBA92BD81BD20BD0FB605
:100F3000F894FA9AF99A0FBE01960895F894FFCFA3
:00000001FF
