:100000000C9434000C94BA010C9451000C945100DF
:100010000C9451000C94CF010C9451000C9451009D
:100020000C9451000C9451000C9451000C9451000C
:100030000C9451000C9451000C9451000C945100FC
:100040000C9451000C9451000C940F030C9451002B
:100050000C9451000C94FA020C9451000C94510031
:100060000C9451000C94510011241FBECFEFD8E026
:10007000DEBFCDBF11E0A0E0B1E0E0E9F0E102C0F9
:1000800005900D92A230B107D9F721E0A2E0B1E0CE
:1000900001C01D92A631B207E1F70E9453010C94F2
:1000A00046080C940000ECE7F0E010828081806448
:1000B000808380818F778083808180628083EAE77C
:1000C000F0E01082808180688083808188608083F6
:1000D0008081816080838081826080838081846070
:1000E0008083EEE7F0E080818160808380818260A0
:1000F000808380818460808380818860808308958C
:10010000ECE7F0E09081907F892B8083EAE7F0E0D4
:1001100080818064808380917A0086FDFCCF80910D
:100120007900089583E08093690081E08DBB84B1FC
:10013000816184B985B185B98AB180688AB985B190
:100140008F7785B98AB18B7F8AB98BB184608BB97F
:1001500008958AB1877F8AB98AB18F7D8AB98BB1B8
:1001600088628BB9EDE6F0E0808188628083E8E602
:10017000F0E080818460808308950F931F93CF9374
:10018000DF9387E00E94800080930D010E94E104CC
:10019000CCE7D0E08881807F8883888187608883EE
:1001A0000AE710E0F8018081806480838FE39CE996
:1001B0000197F1F700C0000086E00E948000809364
:1001C0000C010E94D2058881807F888388818660A7
:1001D0008883F8018081806480838FE39CE90197A4
:1001E000F1F700C0000085E00E94800080930B01C1
:1001F0000E9419058881807F888388818560888333
:10020000F8018081806480838FE39CE90197F1F796
:1002100000C0000084E00E94800080930A010E94D8
:10022000F3038881807F8883888184608883F801D4
:100230008081806480838FE39CE90197F1F700C09F
:100240000000DF91CF911F910F9108951F93CF93DD
:10025000DF93162FD42FC22F0E94E1048FE39CE975
:100260000197F1F700C00000812F0E94D2058FE3B3
:100270009CE90197F1F700C000008D2F0E9419053D
:100280008FE39CE90197F1F700C000008C2F0E94DA
:10029000F3038FE39CE90197F1F700C00000DF91C1
:1002A000CF911F910895F8941092800010928100D0
:1002B0001092B0001092B10014BC15BC0E94530003
:1002C0000E9408064FE35CE968E070E080E00E946D
:1002D000870460E074E080E00E94B0054FE35CE9D1
:1002E00068E070E080E00E94B40460E074E080E0C8
:1002F0000E94E0030E9492000E94A90078948091DD
:10030000130181110CC085B1806185B985B18E7FE3
:1003100085B98BB18F778BB90E94BD00F0CF81304A
:1003200031F48BB180688BB90E94BD00E8CF823078
:1003300051F485B1816085B985B18F7E85B98BB166
:100340008F778BB9DCCF833039F48BB180688BB970
:1003500085B18E7F85B9D3CF85B1816085B9209174
:1003600002014091030160910401809105010E9406
:100370002601C5CF1F920F920FB60F9211248F93B3
:10038000809113018F5F80931301853011F41092D7
:1003900013018F910F900FBE0F901F9018951F9211
:1003A0000F920FB60F9211241F932F933F934F93E9
:1003B0005F936F937F938F939F93AF93BF93CF93ED
:1003C000DF93EF93FF9380911301811135C04B9917
:1003D00018C060910D0180E090E00E9438086091A3
:1003E0000C0181E090E00E94380860910B0182E0EE
:1003F00090E00E94380860910A0183E090E00E943A
:1004000038084D99E3C060910D0184E090E00E94AE
:10041000380860910C0185E090E00E9438086091F6
:100420000B0186E090E00E94380860910A0187E0A5
:1004300090E00E943808CAC08130A9F54B9918C0D5
:1004400060910D0188E090E00E94380860910C01F5
:1004500089E090E00E94380860910B018AE090E00A
:100460000E94380860910A018BE090E00E943808F1
:100470004D99ACC060910D018CE090E00E9438086D
:1004800060910C018DE090E00E94380860910B01B2
:100490008EE090E00E94380860910A018FE090E0C1
:1004A0000E94380893C0823009F047C04B9921C0A0
:1004B00080E090E00E943008C82F8093090181E01D
:1004C00090E00E943008D82F8093080182E090E0ED
:1004D0000E943008182F8093070183E090E00E946B
:1004E000300880930601282F412F6D2F8C2F0E94FA
:1004F00026014D996BC084E090E00E943008C82F1F
:100500008093090185E090E00E943008D82F809305
:10051000080186E090E00E943008182F80930701C0
:1005200087E090E00E94300880930601282F412F39
:100530006D2F8C2F0E94260149C0833009F046C0E0
:100540004B9921C088E090E00E943008C82F80932A
:10055000090189E090E00E943008D82F80930801BB
:100560008AE090E00E943008182F809307018BE00A
:1005700090E00E94300880930601282F412F6D2FB4
:100580008C2F0E9426014D9921C08CE090E00E94A2
:100590003008C82F809309018DE090E00E94300858
:1005A000D82F809308018EE090E00E943008182F29
:1005B000809307018FE090E00E943008809306014D
:1005C000282F412F6D2F8C2F0E942601FF91EF9134
:1005D000DF91CF91BF91AF919F918F917F916F915B
:1005E0005F914F913F912F911F910F900FBE0F90F0
:1005F0001F9018951F920F920FB60F9211248F9390
:10060000EF93FF93EAE7F0E0808180618083FF91C0
:10061000EF918F910F900FBE0F901F9018951F9222
:100620000F920FB60F9211242F933F938F939F93A6
:100630008091C6008093150180910001823089F07D
:1006400018F4813031F054C08330D1F0843041F15E
:100650004FC090911501909312018F5F809300011C
:1006600047C02091150130E02053310994E6299FBD
:10067000202D112420930E018F5F8093000138C03C
:100680002091150130E020533109220F922F990F4C
:10069000990F290F20930F018F5F8093000128C0CD
:1006A0008091150180538093100120910E0190914B
:1006B0000F01920F890F80931101909112019233D3
:1006C00061F018F4913331F010C0933349F0943352
:1006D00051F00BC08093050108C08093040105C050
:1006E0008093030102C08093020181E080930001A6
:1006F0009F918F913F912F910F900FBE0F901F9060
:1007000018954F925F926F927F92AF92BF92CF9265
:10071000DF92EF92FF920F931F93CF93DF93CDB7AA
:10072000DEB728970FB6F894DEBF0FBECDBF290104
:100730003A01ED82FE820F8318870E9427066983A3
:100740007A838B839C83A6019501698D7A8D8B8D2D
:100750009C8D0E9427069B01AC0169817A818B8167
:100760009C810E94C30769837A838B839C83A30146
:100770009201C801B7010E9427069B01AC01698163
:100780007A818B819C810E9494069B01AC01C601F9
:10079000B5010E94280628960FB6F894DEBF0FBE5A
:1007A000CDBFDF91CF911F910F91FF90EF90DF9020
:1007B000CF90BF90AF907F906F905F904F900895D3
:1007C0009AB190649AB9882321F084B5806C84BD75
:1007D00003C084B5806884BD84B5836084BD85B55D
:1007E000856085BD0895AF92BF92CF92DF92EF9260
:1007F000FF920F931F93682F70E080E090E00E94BB
:10080000350722E42F9320E12F931F921F920F2E82
:10081000A12CB12CF0ECCF2EF0E4DF2EF02DE12C4A
:10082000F12C0FE713E420E030E0A9010E948103DE
:100830000F900F900F900F900E94060767BD1F91B9
:100840000F91FF90EF90DF90CF90BF90AF90089501
:100850004F925F926F927F92AF92BF92CF92DF9250
:10086000EF92FF920F931F93CF93DF93CDB7DEB735
:1008700028970FB6F894DEBF0FBECDBF29013A010D
:10088000ED82FE820F8318870E94270669837A8390
:100890008B839C83A6019501698D7A8D8B8D9C8DB0
:1008A0000E9427069B01AC0169817A818B819C8122
:1008B0000E94C30769837A838B839C83A30192017F
:1008C000C801B7010E9427069B01AC0169817A81AA
:1008D0008B819C810E9494069B01AC01C601B501ED
:1008E0000E94280628960FB6F894DEBF0FBECDBF33
:1008F000DF91CF911F910F91FF90EF90DF90CF90FC
:10090000BF90AF907F906F905F904F90089594B19B
:10091000926094B9E0E8F0E0908192609083E1E821
:10092000F0E0908198619083509387004093860017
:10093000882331F0E0E8F0E08081806C808305C09E
:10094000E0E8F0E08081806880836830710531F4F0
:10095000E1E8F0E08081826080830895E1E8F0E0E2
:10096000808184608083089594B1946094B9E0E8B4
:10097000F0E0908192609083E1E8F0E090819861EE
:1009800090835093870040938600882331F0E0E8FD
:10099000F0E080818063808305C0E0E8F0E0808142
:1009A000806280836830710531F4E1E8F0E0808195
:1009B000826080830895E1E8F0E080818460808334
:1009C0000895AF92BF92CF92DF92EF92FF920F9372
:1009D0001F93682F70E080E090E00E94350725E4C7
:1009E0002F9326E92F931F921F920F2EA12CB12C2B
:1009F000F1E6CF2EF4E4DF2EF02DE12CF12C0FE701
:100A000013E420E030E0A9010E9428040F900F9029
:100A10000F900F900E9406077093890060938800E2
:100A20001F910F91FF90EF90DF90CF90BF90AF900C
:100A30000895AF92BF92CF92DF92EF92FF920F9301
:100A40001F93682F70E080E090E00E94350725E456
:100A50002F9326E92F931F921F920F2EA12CB12CBA
:100A6000F1E6CF2EF4E4DF2EF02DE12CF12C0FE790
:100A700013E420E030E0A9010E9428040F900F90B9
:100A80000F900F900E94060770938B0060938A006E
:100A90001F910F91FF90EF90DF90CF90BF90AF909C
:100AA00008954F925F926F927F92AF92BF92CF92D2
:100AB000DF92EF92FF920F931F93CF93DF93CDB707
:100AC000DEB728970FB6F894DEBF0FBECDBF290161
:100AD0003A01ED82FE820F8318870E942706698300
:100AE0007A838B839C83A6019501698D7A8D8B8D8A
:100AF0009C8D0E9427069B01AC0169817A818B81C4
:100B00009C810E94C30769837A838B839C83A301A2
:100B10009201C801B7010E9427069B01AC016981BF
:100B20007A818B819C810E9494069B01AC01C60155
:100B3000B5010E94280628960FB6F894DEBF0FBEB6
:100B4000CDBFDF91CF911F910F91FF90EF90DF907C
:100B5000CF90BF90AF907F906F905F904F9008952F
:100B600094B1986094B9E0EBF0E090819360908349
:100B7000882321F08081806C808305C0E0EBF0E069
:100B80008081806880836115744031F4E1EBF0E08E
:100B90008081876080830895E1EBF0E0808181604F
:100BA00080830895AF92BF92CF92DF92EF92FF922F
:100BB0000F931F93682F70E080E090E00E9435074C
:100BC00022E42F9320E12F931F921F920F2EA12C2E
:100BD000B12CF0ECCF2EF0E4DF2EF02DE12CF12C37
:100BE0000FE713E420E030E0A9010E9451050F90C7
:100BF0000F900F900F900E9406076093B3001F9113
:100C00000F91FF90EF90DF90CF90BF90AF9008953D
:100C10008AB18E7F8AB98AB182608AB9E0ECF0E04D
:100C20001082808182608083E1ECF0E0108280811C
:100C300088698083E2ECF0E01082808186608083A6
:100C40008FEC90E09093C5008093C40008955058B5
:100C5000BB27AA270E943F060C9489070E947B07A6
:100C600038F00E94820720F039F49F3F19F426F4EF
:100C70000C9478070EF4E095E7FB0C947207E92FCB
:100C80000E949A0758F3BA176207730784079507FB
:100C900020F079F4A6F50C94BC070EF4E0950B2E29
:100CA000BA2FA02D0B01B90190010C01CA01A001BE
:100CB0001124FF27591B99F0593F50F4503E68F119
:100CC0001A16F040A22F232F342F4427585FF3CF5A
:100CD000469537952795A795F0405395C9F77EF42B
:100CE0001F16BA0B620B730B840BBAF09150A1F074
:100CF000FF0FBB1F661F771F881FC2F70EC0BA0FFA
:100D0000621F731F841F48F4879577956795B79581
:100D1000F7959E3F08F0B0CF9395880F08F099277C
:100D2000EE0F9795879508950E94A8060C94890761
:100D30000E94820758F00E947B0740F029F45F3F31
:100D400029F00C94720751110C94BD070C9478078C
:100D50000E949A0768F39923B1F3552391F3951BE9
:100D6000550BBB27AA2762177307840738F09F5FCC
:100D70005F4F220F331F441FAA1FA9F335D00E2E39
:100D80003AF0E0E832D091505040E695001CCAF7A6
:100D90002BD0FE2F29D0660F771F881FBB1F261769
:100DA00037074807AB07B0E809F0BB0B802DBF0140
:100DB000FF2793585F4F3AF09E3F510578F00C940F
:100DC00072070C94BD075F3FE4F3983ED4F3869519
:100DD00077956795B795F7959F5FC9F7880F911D30
:100DE0009695879597F90895E1E0660F771F881F1C
:100DF000BB1F621773078407BA0720F0621B730BCF
:100E0000840BBA0BEE1F88F7E09508950E94A207A5
:100E100088F09F5798F0B92F9927B751B0F0E1F0BB
:100E2000660F771F881F991F1AF0BA95C9F714C06B
:100E3000B13091F00E94BC07B1E008950C94BC075A
:100E4000672F782F8827B85F39F0B93FCCF38695A4
:100E500077956795B395D9F73EF490958095709501
:100E600061957F4F8F4F9F4F0895E89409C097FB7E
:100E70003EF490958095709561957F4F8F4F9F4F71
:100E80009923A9F0F92F96E9BB279395F6958795B5
:100E900077956795B795F111F8CFFAF4BB0F11F478
:100EA00060FF1BC06F5F7F4F8F4F9F4F16C088231F
:100EB00011F096E911C0772321F09EE8872F762F55
:100EC00005C0662371F096E8862F70E060E02AF096
:100ED0009A95660F771F881FDAF7880F9695879582
:100EE00097F9089597F99F6780E870E060E00895AA
:100EF0009FEF80EC089500240A9416161706180632
:100F00000906089500240A9412161306140605060D
:100F10000895092E0394000C11F4882352F0BB0F9E
:100F200040F4BF2B11F460FF04C06F5F7F4F8F4F01
:100F30009F4F089557FD9058440F551F59F05F3F3C
:100F400071F04795880F97FB991F61F09F3F79F0EB
:100F500087950895121613061406551FF2CF46956D
:100F6000F1DF08C0161617061806991FF1CF8695EF
:100F70007105610508940895E894BB2766277727D3
:100F8000CB0197F908950E94D6070C9489070E9417
:100F90007B0738F00E94820720F0952311F00C9413
:100FA00072070C94780711240C94BD070E949A07CD
:100FB00070F3959FC1F3950F50E0551F629FF001AC
:100FC000729FBB27F00DB11D639FAA27F00DB11DC5
:100FD000AA1F649F6627B00DA11D661F829F22274E
:100FE000B00DA11D621F739FB00DA11D621F839FD5
:100FF000A00D611D221F749F3327A00D611D231FAB
:10100000849F600D211D822F762F6A2F11249F57F8
:1010100050409AF0F1F088234AF0EE0FFF1FBB1FFB
:10102000661F771F881F91505040A9F79E3F5105BA
:1010300080F00C9472070C94BD075F3FE4F3983E78
:10104000D4F3869577956795B795F795E7959F5F64
:10105000C1F7FE2B880F911D9695879597F90895F6
:10106000F999FECF92BD81BDF89A992780B5089570
:10107000262FF999FECF1FBA92BD81BD20BD0FB6B4
:10108000F894FA9AF99A0FBE01960895F894FFCF52
:0210900001005D
:00000001FF
