:100000000C9434000C9446000C9446000C9446006A
:100010000C9446000C9446000C9446000C94460048
:100020000C9446000C9446000C9446000C94460038
:100030000C9446000C9446000C9446000C94460028
:100040000C9446000C9446000C9446000C94460018
:100050000C9446000C9419010C9446000C94460034
:100060000C9446000C94460011241FBECFEFD8E03C
:10007000DEBFCDBF21E0A0E0B1E001C01D92A43001
:10008000B207E1F70E9487000C94BE050C940000B3
:10009000ECE7F0E0108280818064808380818F773C
:1000A0008083808180628083EAE7F0E01082808133
:1000B0008068808380818860808380818160808384
:1000C000808182608083808184608083EEE7F0E0BD
:1000D0008081816080838081826080838081846070
:1000E00080838081886080830895ECE7F0E09081D0
:1000F000907F892B8083EAE7F0E0808180648083B1
:1001000080917A0086FDFCCF809179000895F89463
:1001100010928000109281001092B0001092B100F5
:1001200014BC15BC0E9448004FE35CE968E070E035
:1001300080E00E94340260E074E080E00E945D0391
:100140004FE35CE968E070E080E00E94610260E0FB
:1001500074E080E00E948D01789480E00E94750038
:10016000809303010E948E02CCE7D0E08881807FDB
:100170008883888188830AE710E0F80180818064A1
:100180008083FFEF20E782E0F15020408040E1F7DC
:1001900000C0000081E00E947500809302010E946F
:1001A0007F038881807F8883888182608883F801CB
:1001B000808180648083FFEF20E782E0F15020405F
:1001C0008040E1F700C0000082E00E94750080934B
:1001D00001010E94C6028881807F888388818460B3
:1001E0008883F801808180648083FFEF20E782E0CC
:1001F000F15020408040E1F700C0000083E00E9401
:100200007500809300010E94A0018881807F88830F
:10021000888183608883F801808180648083FFEF18
:1002200020E782E0F15020408040E1F700C000006C
:1002300094CF1F920F920FB60F9211248F93EF93CA
:10024000FF93EAE7F0E0808180618083FF91EF9186
:100250008F910F900FBE0F901F9018954F925F9245
:100260006F927F92AF92BF92CF92DF92EF92FF9206
:100270000F931F93CF93DF93CDB7DEB728970FB6B9
:10028000F894DEBF0FBECDBF29013A01ED82FE8298
:100290000F8318870E94B50369837A838B839C83BD
:1002A000A6019501698D7A8D8B8D9C8D0E94B50379
:1002B0009B01AC0169817A818B819C810E945105EF
:1002C00069837A838B839C83A3019201C801B70160
:1002D0000E94B5039B01AC0169817A818B819C816D
:1002E0000E9422049B01AC01C601B5010E94B60325
:1002F00028960FB6F894DEBF0FBECDBFDF91CF9129
:100300001F910F91FF90EF90DF90CF90BF90AF9033
:100310007F906F905F904F9008959AB190649AB9D2
:10032000882321F084B5806C84BD03C084B58068C7
:1003300084BD84B5836084BD85B5856085BD089521
:10034000AF92BF92CF92DF92EF92FF920F931F93E3
:10035000682F70E080E090E00E94C30422E42F93B5
:1003600020E12F931F921F920F2EA12CB12CF0ECA5
:10037000CF2EF0E4DF2EF02DE12CF12C0FE713E46B
:1003800020E030E0A9010E942E010F900F900F9005
:100390000F900E94940467BD1F910F91FF90EF9002
:1003A000DF90CF90BF90AF9008954F925F926F9281
:1003B0007F92AF92BF92CF92DF92EF92FF920F9314
:1003C0001F93CF93DF93CDB7DEB728970FB6F8947E
:1003D000DEBF0FBECDBF29013A01ED82FE820F8341
:1003E00018870E94B50369837A838B839C83A60157
:1003F0009501698D7A8D8B8D9C8D0E94B5039B0133
:10040000AC0169817A818B819C810E94510569834D
:100410007A838B839C83A3019201C801B7010E9458
:10042000B5039B01AC0169817A818B819C810E941B
:1004300022049B01AC01C601B5010E94B6032896B7
:100440000FB6F894DEBF0FBECDBFDF91CF911F91E5
:100450000F91FF90EF90DF90CF90BF90AF907F9083
:100460006F905F904F90089594B1926094B9E0E8D6
:10047000F0E0908192609083E1E8F0E090819861F3
:1004800090835093870040938600882331F0E0E802
:10049000F0E08081806C808305C0E0E8F0E080813E
:1004A000806880836830710531F4E1E8F0E0808194
:1004B000826080830895E1E8F0E080818460808339
:1004C000089594B1946094B9E0E8F0E0908192606E
:1004D0009083E1E8F0E090819861908350938700E9
:1004E00040938600882331F0E0E8F0E0808180636B
:1004F000808305C0E0E8F0E080818062808368301E
:10050000710531F4E1E8F0E0808182608083089534
:10051000E1E8F0E08081846080830895AF92BF922B
:10052000CF92DF92EF92FF920F931F93682F70E0AC
:1005300080E090E00E94C30425E42F9326E92F93E6
:100540001F921F920F2EA12CB12CF1E6CF2EF4E4B6
:10055000DF2EF02DE12CF12C0FE713E420E030E04A
:10056000A9010E94D5010F900F900F900F900E944B
:10057000940470938900609388001F910F91FF90FD
:10058000EF90DF90CF90BF90AF900895AF92BF9261
:10059000CF92DF92EF92FF920F931F93682F70E03C
:1005A00080E090E00E94C30425E42F9326E92F9376
:1005B0001F921F920F2EA12CB12CF1E6CF2EF4E446
:1005C000DF2EF02DE12CF12C0FE713E420E030E0DA
:1005D000A9010E94D5010F900F900F900F900E94DB
:1005E000940470938B0060938A001F910F91FF9089
:1005F000EF90DF90CF90BF90AF9008954F925F92B1
:100600006F927F92AF92BF92CF92DF92EF92FF9262
:100610000F931F93CF93DF93CDB7DEB728970FB615
:10062000F894DEBF0FBECDBF29013A01ED82FE82F4
:100630000F8318870E94B50369837A838B839C8319
:10064000A6019501698D7A8D8B8D9C8D0E94B503D5
:100650009B01AC0169817A818B819C810E9451054B
:1006600069837A838B839C83A3019201C801B701BC
:100670000E94B5039B01AC0169817A818B819C81C9
:100680000E9422049B01AC01C601B5010E94B60381
:1006900028960FB6F894DEBF0FBECDBFDF91CF9185
:1006A0001F910F91FF90EF90DF90CF90BF90AF9090
:1006B0007F906F905F904F90089594B1986094B937
:1006C000E0EBF0E0908193609083882321F08081BB
:1006D000806C808305C0E0EBF0E0808180688083DF
:1006E0006115744031F4E1EBF0E080818760808334
:1006F0000895E1EBF0E08081816080830895AF92FE
:10070000BF92CF92DF92EF92FF920F931F93682FC9
:1007100070E080E090E00E94C30422E42F9320E187
:100720002F931F921F920F2EA12CB12CF0ECCF2EE5
:10073000F0E4DF2EF02DE12CF12C0FE713E420E0A4
:1007400030E0A9010E94FE020F900F900F900F90D1
:100750000E9494046093B3001F910F91FF90EF905B
:10076000DF90CF90BF90AF9008955058BB27AA2735
:100770000E94CD030C9417050E94090538F00E94D1
:10078000100520F039F49F3F19F426F40C94060567
:100790000EF4E095E7FB0C940005E92F0E94280574
:1007A00058F3BA17620773078407950720F079F4A6
:1007B000A6F50C944A050EF4E0950B2EBA2FA02D49
:1007C0000B01B90190010C01CA01A0011124FF27FE
:1007D000591B99F0593F50F4503E68F11A16F040F9
:1007E000A22F232F342F4427585FF3CF46953795F8
:1007F0002795A795F0405395C9F77EF41F16BA0BBD
:10080000620B730B840BBAF09150A1F0FF0FBB1F6A
:10081000661F771F881FC2F70EC0BA0F621F731FB3
:10082000841F48F4879577956795B795F7959E3F10
:1008300008F0B0CF9395880F08F09927EE0F9795A1
:10084000879508950E9436040C9417050E941005A0
:1008500058F00E94090540F029F45F3F29F00C94FC
:10086000000551110C944B050C9406050E942805B7
:1008700068F39923B1F3552391F3951B550BBB27CF
:10088000AA2762177307840738F09F5F5F4F220F14
:10089000331F441FAA1FA9F335D00E2E3AF0E0E80B
:1008A00032D091505040E695001CCAF72BD0FE2F55
:1008B00029D0660F771F881FBB1F261737074807E9
:1008C000AB07B0E809F0BB0B802DBF01FF279358A1
:1008D0005F4F3AF09E3F510578F00C9400050C9460
:1008E0004B055F3FE4F3983ED4F386957795679583
:1008F000B795F7959F5FC9F7880F911D96958795D6
:1009000097F90895E1E0660F771F881FBB1F6217F4
:1009100073078407BA0720F0621B730B840BBA0BB2
:10092000EE1F88F7E09508950E94300588F09F57E4
:1009300098F0B92F9927B751B0F0E1F0660F771F03
:10094000881F991F1AF0BA95C9F714C0B13091F0F9
:100950000E944A05B1E008950C944A05672F782F4C
:100960008827B85F39F0B93FCCF3869577956795BE
:10097000B395D9F73EF490958095709561957F4F2A
:100980008F4F9F4F0895E89409C097FB3EF49095D0
:100990008095709561957F4F8F4F9F4F9923A9F058
:1009A000F92F96E9BB279395F695879577956795E7
:1009B000B795F111F8CFFAF4BB0F11F460FF1BC02B
:1009C0006F5F7F4F8F4F9F4F16C0882311F096E9BE
:1009D00011C0772321F09EE8872F762F05C066236C
:1009E00071F096E8862F70E060E02AF09A95660F25
:1009F000771F881FDAF7880F9695879597F90895DE
:100A000097F99F6780E870E060E008959FEF80ECC1
:100A1000089500240A941616170618060906089564
:100A200000240A9412161306140605060895092ECA
:100A30000394000C11F4882352F0BB0F40F4BF2B39
:100A400011F460FF04C06F5F7F4F8F4F9F4F089579
:100A500057FD9058440F551F59F05F3F71F047956F
:100A6000880F97FB991F61F09F3F79F08795089554
:100A7000121613061406551FF2CF4695F1DF08C073
:100A8000161617061806991FF1CF86957105610590
:100A900008940895E894BB2766277727CB0197F938
:100AA00008950E9464050C9417050E94090538F00A
:100AB0000E94100520F0952311F00C9400050C9471
:100AC000060511240C944B050E94280570F3959F90
:100AD000C1F3950F50E0551F629FF001729FBB2735
:100AE000F00DB11D639FAA27F00DB11DAA1F649FD1
:100AF0006627B00DA11D661F829F2227B00DA11D84
:100B0000621F739FB00DA11D621F839FA00D611D09
:100B1000221F749F3327A00D611D231F849F600D2A
:100B2000211D822F762F6A2F11249F5750409AF053
:100B3000F1F088234AF0EE0FFF1FBB1F661F771FDF
:100B4000881F91505040A9F79E3F510580F00C94AA
:100B500000050C944B055F3FE4F3983ED4F3869573
:100B600077956795B795F795E7959F5FC1F7FE2B4A
:100B7000880F911D9695879597F90895F894FFCF62
:00000001FF
